:020000040000FA
:10000000601C00205D020000650200006702000025
:10001000690200006B0200006D0200000000000099
:100020000000000000000000000000006F0200005F
:1000300071020000000000007302000005210000B2
:10004000770200005D17000071170000851700009F
:10005000991700007702000019250000610F0000C9
:1000600077020000AD190000C119000077020000FE
:100070007702000077020000DD220000351E00003C
:10008000651E0000ED190000D5190000BD1200002A
:100090002515000009150000411500005D15000040
:1000A000B514000099140000ED140000D1140000F4
:1000B00095150000791500009D13000081130000C4
:1000C0006513000085120000A11200004913000012
:1000D00077020000770200007702000000000000B5
:1000E000770200003D1100004D1E0000311D000090
:1000F000770200007702000000000000000000000E
:1001000000000000000000000000000000000000EF
:1001100000000000000000000000000000000000DF
:10012000B9130000D5130000F11300000D140000F6
:100130002914000045140000611400007D14000023
:100140000000000000F002F800F078F80AA090E843
:10015000000C82448344AAF10107DA4501D100F082
:100160006DF8AFF2090EBAE80F0013F0010F18BFD7
:10017000FB1A43F001031847A0540000C0540000CC
:10018000FFFFFFFFFFFFFFFFFFFFFFFFFFFFFFFF7F
:1001900003329CA77F000000FFFFFFFFFFFFFFFF70
:1001A0000A444FF0000C10F8013B13F0070408BF9D
:1001B00010F8014B1D1108BF10F8015B641E05D03B
:1001C00010F8016B641E01F8016BF9D113F0080FF0
:1001D0001EBF10F8014BAD1C0C1B09D16D1E58BF82
:1001E00001F801CBFAD505E014F8016B01F8016BB9
:1001F0006D1EF9D59142D6D370470000002300242C
:1002000000250026103A28BF78C1FBD8520728BF26
:1002100030C148BF0B607047782900F07B80002018
:1002200070471FB500F0D0FD04000020002104F04D
:10023000D9FC401C60601FBD10B510BD00F06CFD06
:100240001146FFF7EEFF04F067F900F093FD03B4E9
:10025000FFF7F2FF03BC00F08DFB00000948804768
:1002600009480047FEE7FEE7FEE7FEE7FEE7FEE798
:10027000FEE7FEE7FEE7FEE704480549054A064BB0
:10028000704700003522000045010000600C00208E
:10029000601C002060180020601800200FB41CB5FE
:1002A000074B06AA7B4469460090059800F0E9FADE
:1002B0000020694600F0F8FA1CBC5DF814FB000051
:1002C0000106000070B5044685690068C10601D5C5
:1002D000302600E02026C00707D070BDD4E90121F8
:1002E00030469047206A401C20626D1EF6D570BDD6
:1002F00070B5044685690078C00707D170BDD4E9A0
:10030000012120209047206A401C20626D1EF6D5F6
:1003100070BD000070B504460D4621461068AFF36D
:1003200000802188090502D50F4A7A4402E00E4A6E
:100330007A440E32002104F1240305E000F00F0698
:100340000009965D5E54491C0028F7D120780023EF
:10035000000704D5702D02D009B1022311322046C6
:10036000BDE8704000F02FBA265200002DE9F05F82
:10037000894604464FF0000ADFF824B1FB44C0F878
:1003800020A02046E168884700287DD0252806D097
:10039000D4E901219047206A401C2062F1E7002542
:1003A0005F462046E16888472028064607DB312E55
:1003B00005D2B81910F8200C08B10543F1E7A807D9
:1003C00001D525F00405C4F81CA00027C4F818A026
:1003D0002A2E09D0304602F02CF938B304EB8708F6
:1003E000303EC8F8186019E059F8041B204604EBA9
:1003F00087029161E1688847012F064618D1E069BC
:10040000002820DA25F020051DE0D8F8180000EBC0
:10041000800006EB40003038C8F818002046E1683C
:100420008847064602F005F90028EED1012F0AD0D0
:100430002E2E08D12046E16888477F1C0646022FF1
:1004400045F02005C4DBA069002803DA404245F0EE
:100450000105A061E80701D025F01005A6B1A6F1BD
:100460004100192802D8203645F400654A46314635
:10047000204625604D46FFF7CFFE60B1012807D02A
:10048000ED1D25F0070000E007E000F1080978E71E
:1004900005F1040975E730467AE7206ABDE8F09F68
:1004A000FC5100000FB400B58DB010A90990009167
:1004B0000B904FF0FF300A9000200C9006487844D3
:1004C0000690064878446A4607900F9909A800F0FC
:1004D00005FA0DB05DF814FB3B0400005304000066
:1004E0002DE9FF5F1D464FF0FF3B91464FF000089E
:1004F0005F46D5E90146A96901987F1C8847296AAA
:10050000824688470028F6D1BAF1FF3F0CD0002E72
:1005100024F4C06419DD600614D5BAF12B0F09D09C
:10052000BAF12D0F0ED103E0584604B0BDE8F09F9C
:1005300044F48064A96901987F1C8847761E82462E
:10054000002E02DDBAF1300F03D0B9F1000F26D032
:1005500032E0A969761E01987F1C44F40074884734
:10056000002E824605DDBAF1780F06D0BAF1580F99
:1005700003D0B9F1000F10D01EE0B9F1000F02D086
:10058000B9F1100F18D1A969761E01987F1C24F4C7
:10059000007488478246102002E0082000E00A200C
:1005A000814609E0A96908FB0908761E01987F1CAD
:1005B00044F4007488478246002E05DD49465046C3
:1005C00000F077F90028EDDAE96901988847A0057D
:1005D00002D46FF00100A8E7E00725D1600613D52B
:1005E000600502D5C8F1000000E0404629680A1DF8
:1005F0002A600968220501D5087015E0220701D597
:10060000088011E008600FE02868011D296000687B
:10061000210502D580F8008006E0210702D5A0F868
:10062000008001E0C0F8008038467EE70EB5054640
:1006300014460E4613A000F08CF9284600F089F904
:1006400016A000F086F9304600F083F915A000F0FE
:1006500080F900218DF80B100A210DF10A008DF8A8
:100660000A1008E094FBF1F201FB124294FBF1F452
:10067000303200F8012D002CF4DC00F06AF900F0B3
:100680005DF900002A2A2A20617373657274696F0C
:100690006E206661696C65643A2000002C206669F2
:1006A0006C6520002C206C696E6520004FF0000204
:1006B0000429C0F0128010F0030C00F01B80CCF174
:1006C000040CBCF1020F18BF00F8012BA8BF20F8E2
:1006D000022BA1EB0C0100F00DB85FEAC17C24BF36
:1006E00000F8012B00F8012B48BF00F8012B7047E0
:1006F0004FF0000200B5134694469646203922BFBB
:10070000A0E80C50A0E80C50B1F12001BFF4F7AF05
:10071000090728BFA0E80C5048BF0CC05DF804EBE7
:10072000890028BF40F8042B08BF704748BF20F855
:10073000022B11F0804F18BF00F8012B704700000A
:100740004FF0013C50F8042B51F8043B9A4221D160
:10075000A2EB0C03934313EACC1317D150F8042BEC
:1007600051F8043B9A4215D1A2EB0C03934313EAD0
:10077000CC130BD150F8042B51F8043B9A4209D109
:10078000A2EB0C03934313EACC13DBD04FF0000031
:10079000704700BFD01A01BAB1FA81F101F0180117
:1007A00022FA01F0CB40C1F12001DBB2C0B2C01A85
:1007B0002CFA01F3D11A914311EAC311E6D1704723
:1007C0007047704770472DE9F0470D4699469246AD
:1007D000044600F124080168880604D5E06921F088
:1007E0001001216000E00120A84201DD471B00E06C
:1007F0000027A1697A1902EB0900081AA061207884
:10080000C00602D42046FFF75DFD002608E0D4E9CB
:1008100001211AF806009047206A401C761C2062CD
:100820004E45F4DB2078C0060AD52046FFF74AFD86
:1008300006E0D4E9012130209047206A401C206264
:10084000381EA7F10107F4DC07E0D4E9012118F80C
:1008500005009047206A401C2062281EA5F1010572
:10086000F3DC2046FFF744FD2078000602D5022085
:10087000BDE8F0870120FBE701694A1C02610878A6
:10088000704700B58FB0CDE90131002105910549D0
:100890007944CDE9031011466846FFF767FD0FB0B4
:1008A00000BD0000E5FFFFFF0A6802F8010B0A60C7
:1008B00070473A2800D2303820F02002412A01D374
:1008C000A2F13700884201D34FF0FF30704700009B
:1008D000026811441378016018467047D1600549D9
:1008E0007944516104497944116200211161114632
:1008F00000F050B8EDFFFFFF97000000426842B1E2
:10090000016811F8013B23B1521EC0E900121846DC
:1009100070470121C160881E704742685AB1C368A0
:10092000016843B983688B4205D0491E521CC0E957
:100930000012002070474FF0FF30704710B50020C4
:1009400000F0E2F9FFF778FCBDE81040012000F06C
:1009500011B810B5044602E0641C00F004F82078D9
:100960000028F9D110BD08B569468DF800000320B4
:10097000ABBE08BD01491820ABBEFEE72600020051
:1009800010B5044600F0EEF90068005D00F00100CB
:1009900010BD00002DE9F34F4FF0000A0C465646FB
:1009A0008DB001200C9001F10C000B9062690B9846
:1009B00001219047051E2DD0252D2CD0216A884776
:1009C000C0B162690B9801219047216A88470028CD
:1009D000F7D16269411E0B98904700E0761CA1692F
:1009E0000D988847216A88470028F7D1E1690D985A
:1009F0008847DBE7A1690D988847A842074601D1DF
:100A0000761CD3E7E1690D9888477F1C02D1BAF1C3
:100A1000000F6FD06BE162690B9800273D463946A5
:100A200090472A2804D162690B980121904701253B
:100A3000DFF8D08262690B9801219047A0F1300164
:100A40000A290AD24745E5DC07EB870100EB41079D
:100A5000303FDFD445F01005ECE7E90601D46FF034
:100A600000476C280AD04C2814D0682815D06A2872
:100A70000DD074281CD07A281AD01DE062690B981A
:100A8000012190476C2802D045F0040514E045F0A0
:100A900002050DE045F020050AE062690B9801218E
:100AA0009047682802D045F0080505E045F4006548
:100AB00062690B9801219047C4E9015765283DD030
:100AC00019DC58287AD00CDC452837D004DC2528DE
:100AD00026D041289ED131E046282FD0472899D1F1
:100AE0002CE05B2877D0612828D063287CD064284C
:100AF00023D15AE0F6E06F2848D008DC66281DD0E4
:100B000067281BD0692821D06E2816D127E07028CD
:100B100045D0732868D0752847D078280DD14DE08E
:100B2000A1690D988847252805463FF469AFE1691A
:100B30000D9888476D1C3FF46AAFD8E00D992346A5
:100B40006A466FF00100AFF30080C5E045F0400059
:100B500023464FF000026060A80736D43EE0E80765
:100B60007FF447AF2068011D21600068290501D589
:100B700006701BE7290701D5068017E7A90703D5EB
:100B8000F117C0E9006111E706600FE745F040008A
:100B900023464FF008026060A80716D41EE040F616
:100BA0000E0125EA0100606016E045F04000234692
:100BB0004FF00A026060A80707D40FE045F040003C
:100BC0006060A80708D5234610220D996FF0010038
:100BD000AFF3008080E007E0102223460D996FF00C
:100BE0000100FFF77DFC77E04FF0000963284F46D6
:100BF000C8464B46CB4602D05B2806D038E0E80614
:100C000001D40120A060012732E06269D4F80CB061
:100C10000B98012190475E2807D14FF00109494602
:100C20006269D4F80CB00B989047216939B900215A
:100C30000A4603AB43F82120491C0829FADBD8B344
:100C4000216949B308F1010862690B9801219047B5
:100C50005D28F4D1B9F1000F09D0002003A951F8A3
:100C60002020D24341F82020401C0828F7DB03ABAA
:100C70002069002820794FEA40701ED05B4622464A
:100C8000CDF80080CDE901970D9900286FF00100A3
:100C900020DAAFF300801FE0C11703AA00EBD16197
:100CA0004B1121F01F0102EB8302411A136801204E
:100CB000884003431360C7E719E00D9922460028D6
:100CC0006FF00100009702DAAFF3008004E0AFF3A9
:100CD000008001E0AFF3008000280ADA401C06D152
:100CE0000C9820B14FF0FF300FB0BDE8F08F5046A8
:100CF000FAE7E90701D10AF1010A064400200C9045
:100D000054E60000CCCCCC0C10B500F041F8BDE8A6
:100D1000104000F038B87047754600F051F8AE4604
:100D200005006946534620F00700854618B020B5F7
:100D3000FFF7A2FABDE820404FF000064FF0000791
:100D40004FF000084FF0000B21F00701AC46ACE873
:100D5000C009ACE8C009ACE8C009ACE8C0098D46E0
:100D60007047000010B500F02FF8001D10BD00BF47
:100D7000753E000010B50446AFF300802046BDE884
:100D80001040FFF764BA002801D0FFF7F3BD7047A9
:100D900010B5002102A000F01BF8012010BD0000DA
:100DA000534947414252543A2041626E6F726D611D
:100DB0006C207465726D696E6174696F6E000000FD
:100DC00000487047000C002000487047200C0020AD
:100DD00070B505460C460A2000E06D1CFFF7C3FD08
:100DE00035B128780028F8D102E0641CFFF7BBFD7C
:100DF00014B120780028F8D1BDE870400A20FFF730
:100E0000B2BD2DE9F84304462512E6B2284603F0A8
:100E100045F90746304603F051F980460122414624
:100E2000384601F08BFD6A464146384601F07AFDAE
:100E3000BDF80000002802DD0120BDE8F883002095
:100E4000FBE700002DE9FC4704460D46002000901A
:100E500001902612E7B2012234A13548006802F061
:100E600095FA324633A16846FFF718FA042269461C
:100E70002F48006802F08AFA012230A12C4800684D
:100E800002F084FA3A462BA16846FFF707FA0422DB
:100E900069462748006802F079FA012223A1244814
:100EA000006802F073FA304603F0F8F880463846DE
:100EB00003F004F9814601221CA11D48006802F0DC
:100EC00065FA42461BA16846FFF7E8F90422694625
:100ED0001748006802F05AFA012218A11448006865
:100EE00002F054FA4A4613A16846FFF7D7F90422E4
:100EF00069460F48006802F049FA01220BA10C482C
:100F0000006802F043FA01224946404601F054FDD0
:100F1000002D04DD4946404601F08CFD03E04946C2
:100F2000404601F091FDBDE8FC8700002000000074
:100F30000000002025303458000000003A00000076
:100F40000246012903D1907B5368188605E050685A
:100F5000008E937B984353681886002070470000EA
:100F600010B500BF00BF0C48446804F0010078B120
:100F70000A48006830B10022214609480068074B42
:100F80001B6898470448406840F0010002494860E7
:100F900000BF00BF10BD000000C004409001002051
:100FA0009401002010B543689A8943681B7C7BB18B
:100FB000D3B20468A38302F44073F02444EAD31349
:100FC00009B1012400E0002423434468A38209E01E
:100FD00009B1012300E0002302F07F0443EA440446
:100FE00043689C8243689B8A0468238310BD000089
:100FF0000246002010705073107382F82800D063EE
:1010000010640848D062084B1363084B5363084BC5
:101010009363C1EBC100074B03EB8000C0685060D5
:10102000002070475F420000E74200006542000078
:101030005B420000840000202DE9F84380460D4605
:101040001C48C068001D00EBC804092D0ED00A2DF5
:101050000CD0681E0121814017480160206830B320
:1010600000222946D4E90030984720E000261CE001
:10107000104850F82670092D02D1B7F8289001E0E9
:10108000B7F82C90388E00EA09000090BDF80000F7
:101090003886206838B1BDF8000020B16A46314674
:1010A000D4E900309847701CC6B2032EE0DBBDE8DF
:1010B000F88300008001002090C0044070B5044611
:1010C00000261B49204601F0E5FE061E01D03046F1
:1010D00070BD00BF01F0A1FA054605B972B615480A
:1010E000006808B91448056012480068401C11499E
:1010F000086000BF6068008A40F440506168088260
:1011000002206168088200BF0A480068401E094941
:1011100008600846006828B9002008600648006892
:1011200000B962B600BF0020616888833046CFE70F
:1011300090D00300A8010020AC01002010B500BF32
:1011400000BF0B48006800F4CC440A48006830B186
:101150002104002208480068064B1B689847044891
:10116000006820430549C1F8180300BF00BF10BD47
:1011700018C30440900100209401002000C00440E6
:101180002DE9F04704464FF000080CB9BDE8F087A0
:10119000206A00B105E040F26352304930A0FFF709
:1011A00045FA2178012000FA01F6207D401C2075C7
:1011B000206A4069B0F5806F03D80020216A486139
:1011C00005E0206A4069A0F58060216A4861206AD4
:1011D000406908BB04F1200002F01AFF0546D5F86B
:1011E000089027480068D0F88400304030B90321C7
:1011F000A869B1EB907F01D1D5F804904F466068A3
:1012000020B13A460021D4E901309847294604F13B
:10121000180002F033F900BF206A78B1256A00E0B7
:101220002D6828680028FBD1286910B94FF0010803
:1012300003E02946204600F0D9FA01E04FF001080A
:10124000B8F1010F02D1204600F058FC206A10B11D
:10125000204600F021FD00BF98E70000B8550000CF
:10126000704368616E6E656C2D3E70416374697683
:1012700065424C69737420213D204E554C4C000052
:101280005055000010B500BF00BF04490968886BC5
:10129000FFF776FF00BF00BF10BD000050550000F3
:1012A00010B500BF00BF04490968C86BFFF768FFAD
:1012B00000BF00BF10BD0000505500002DE9F047F1
:1012C00000BF00BF1E48D0F84C80846C066D44EA15
:1012D000060060B31B480068D0F8880044EA0601A5
:1012E00000EA0109B9F1000F20D000251BE0012020
:1012F000A84000EA0900A8B112480068001D50F893
:101300002570786868B10120A840204008B101200C
:1013100000E00220824600225146D7E9013098477A
:1013200000BF00BF6D1C202DE1D300BF00BF0448EB
:1013300084640665C0F84C8000BF00BFBDE8F0873C
:10134000000001405055000010B500BF00BF044927
:101350000968086CFFF714FF00BF00BF10BD000054
:101360005055000010B500BF00BF04490968486B24
:10137000FFF706FF00BF00BF10BD00005055000082
:1013800010B500BF00BF04490968086BFFF7F8FEFD
:1013900000BF00BF10BD00005055000010B500BFD9
:1013A00000BF04490968C86AFFF7EAFE00BF00BF32
:1013B00010BD00005055000010B500BF00BF04492B
:1013C0000968486CFFF7DCFE00BF00BF10BD0000DD
:1013D0005055000010B500BF00BF04490968886C73
:1013E000FFF7CEFE00BF00BF10BD0000505500004B
:1013F00010B500BF00BF04490968C86CFFF7C0FE04
:1014000000BF00BF10BD00005055000010B500BF68
:1014100000BF04490968086DFFF7B2FE00BF00BFB6
:1014200010BD00005055000010B500BF00BF0449BA
:101430000968486DFFF7A4FE00BF00BF10BD0000A3
:101440005055000010B500BF00BF04490968886D01
:10145000FFF796FE00BF00BF10BD00005055000012
:1014600010B500BF00BF04490968C86DFFF788FECA
:1014700000BF00BF10BD00005055000010B500BFF8
:1014800000BF04490968086EFFF77AFE00BF00BF7D
:1014900010BD00005055000010B500BF00BF04494A
:1014A00009688869FFF76CFE00BF00BF10BD00002F
:1014B0005055000010B500BF00BF044909684869D5
:1014C000FFF75EFE00BF00BF10BD000050550000DA
:1014D00010B500BF00BF04490968086AFFF750FE55
:1014E00000BF00BF10BD00005055000010B500BF88
:1014F00000BF04490968C869FFF742FE00BF00BF8A
:1015000010BD00005055000010B500BF00BF0449D9
:1015100009688868FFF734FE00BF00BF10BD0000F7
:101520005055000010B500BF00BF04490968486865
:10153000FFF726FE00BF00BF10BD000050550000A1
:1015400010B500BF00BF04490968C868FFF718FE5E
:1015500000BF00BF10BD00005055000010B500BF17
:1015600000BF044909680869FFF70AFE00BF00BF11
:1015700010BD00005055000010B500BF00BF044969
:101580000968886AFFF7FCFD00BF00BF10BD0000BE
:101590005055000010B500BF00BF04490968486AF3
:1015A000FFF7EEFD00BF00BF10BD0000505500006A
:1015B00070B50446206885886068407C28B905F0CD
:1015C0000C0010B1204600F035FB05F0200040B1C2
:1015D00000BF082240F20141204600F013FA00BF8C
:1015E00000BF05F0100040B100BF072240F201111A
:1015F000204600F007FA00BF00BF05F0800040B1B0
:1016000000BF062240F20121204600F0FBF900BF96
:1016100000BF05F48070A8B12646306800884FF2FC
:10162000CF210840316808807068406A10B13046A8
:1016300000F0A0FB304600F045FB304600F0E1FB37
:1016400000BF00BF70BD70B505462868868D68680C
:10165000407C28B906F00C0010B1284600F0EAFAE8
:1016600006F4005088B12C466068D0F8A00030B174
:1016700061680022D1E928300521984703E0102154
:10168000204600F0FBFB00BF00BF06F4806008B3FB
:101690002C466068406A807C38B92068008D4BF623
:1016A000FF2108402168088506E02068008D4DF67E
:1016B000FF410840216808856068406A10B12046F3
:1016C00000F058FB204600F0FDFA204600F099FBA0
:1016D00000BF00BF06F0800010B1284602F0BAFF3C
:1016E00070BD30B5034642F00104012905D15868A8
:1016F000808B20435D68A88304E05868808BA043FA
:101700005D68A883002030BD70B504460D462946AB
:10171000D4F83C0100F0CAFF08B1052070BD35B90E
:101720006068808B4FF6FB710840616888830020F9
:10173000F4E770B504460D462946D4F8D40000F00D
:10174000B5FF08B1052070BD35B96068808B4FF6D4
:10175000FD710840616888830020F4E710B500BF80
:1017600000BF01210020FFF767FC00BF00BF10BDD4
:1017700010B500BF00BF02210120FFF75DFC00BFD4
:1017800000BF10BD10B500BF00BF03210220FFF74E
:1017900053FC00BF00BF10BD70B500BF00BF1148B3
:1017A000C06800F11C04042500260F48006800F002
:1017B0002000202802D145F024052026206820B1F1
:1017C00000222946D4E90030984707480C300068C9
:1017D00046F00801084304498439C1F8900000BF6D
:1017E00000BF70BD8001002084C004402DE9F0419D
:1017F000B0F800C01FFA8CF579E0D0F80CC0D1F831
:1018000018804CEA080290F815C0BCF1000F0AD00D
:10181000DFF8F4C0DCF800C00CEB05144FF0000C4E
:1018200080F815C009E0DFF8E4C0DCF800C00CEB7C
:1018300005144FF0010C80F815C090F814C0ACF1FD
:10184000010C80F814C0D1F810C0BCF5806F06D927
:101850004FF4806322F0070C0CF1030200E00B69E7
:10186000C2F381684FF0010C0CFA08F6042E00D97F
:1018700000264FEA92784FF0010C0CFA08F7042F7B
:1018800000D90027D1F80CC09C44ACF1010CD1F870
:1018900004800CFB068CC4F800C002F0070CBCF1FD
:1018A000040F0AD3DFF864C0DCF800C00CEB051CA1
:1018B0000CF10C0CC4F804C008E0D1E9028C9C4483
:1018C000ACF1010C0CFB078CC4F804C0A3F1010CB3
:1018D00042EA0C1CC4F808C0D1F810C0ACEB030CF1
:1018E000C1F810C0D1F80CC09C44C1F80CC090F8ED
:1018F00014C0BCF1000F05D0D1F810C0BCF1000F2E
:101900007FF47BAFBDE8F081485500004C550000E6
:1019100070B5044600BF00F07DFE054605B972B6FD
:101920002048006808B9204805601E480068401C2F
:101930001C49086000BF6068007988B92068B0F869
:101940004C0040F400702168A1F84C002068B0F809
:101950004C004FF6FF5108402168A1F84C0010E000
:101960002068B0F84C0040F480702168A1F84C0069
:101970002068B0F84C004FF6FF6108402168A1F8DC
:101980004C0000BF07480068401E06490860084632
:10199000006828B9002008600348006800B962B6F2
:1019A00000BF70BDA8010020AC01002010B500BF31
:1019B00000BF09210420FFF73FFB00BF00BF10BD9F
:1019C00010B500BF00BF0A210520FFF735FB00BF9F
:1019D00000BF10BD10B500BF00BF0348FFF7E8FD12
:1019E00000BF00BF10BD00007400002010B500BF94
:1019F00000BF0348FFF727FE00BF00BF10BD000077
:101A00007C00002070B504460D4616466068406AAA
:101A1000008A28436168496A08826068D0F8A0009B
:101A200028B161680022D1E928303146984770BD5D
:101A300010B504466068406A807C10B92046FFF704
:101A400067FF60680121D0F8AC20204690476068AD
:101A5000007960BB6068407C88B16068406A807CC7
:101A600030B92068008840F410602168088017E0D1
:101A70002068008840F4A0602168088010E0606859
:101A8000406A807C30B92068008840F490702168FA
:101A9000088005E02068008840F48870216808808C
:101AA0006068406A817C2046FFF77CFA23E060682A
:101AB000407C80B12068008D6168496A897C11B9D9
:101AC0004FF4804101E04FF4005141F4807108432C
:101AD000216808850FE02068008D6168496A897C6B
:101AE00011B94FF4806101E04FF4007141F480714D
:101AF000084321680885002010BD00002DE9F04151
:101B000004462178012000FA01F7207B00F0070647
:101B100036E0032E02D0206A00B13CE004F11C0044
:101B200002F076FA054605B105E040F203521B4982
:101B30001BA0FEF77BFD032E17D001206075A0755A
:101B40001B484763022E01D0012E03D12046E969CC
:101B500000F0A2F9207D022800D105E040F21352E6
:101B60000E4914A0FEF762FD00BF29462046FFF78C
:101B70003DFE294604F1200001F080FC0C488762FC
:101B800014480068D0F88C00384020B1E06910B1EA
:101B9000207D0028BDD100BFBDE8F081B855000010
:101BA0007042756666657220213D204E554C4C0092
:101BB00000000140704368616E6E656C2D3E6E4E94
:101BC000756D4672656544657363203D3D203275D1
:101BD000000000005055000010B50478012303FAFE
:101BE00004F2002108E000F124034C1C03EB441430
:101BF00003EB41131C60491C0129F4DB00244464FD
:101C000000F124038361084B1A60084BDA63084B28
:101C10001B68D3F88430134013B10223C36001E082
:101C20000123C36010BD0000040801400000014012
:101C30005055000038B5044601256068007958B950
:101C40006068406AC07C38B16068808A2168088317
:101C500000206168496AC87460680021D0F8AC202F
:101C6000204690476068407C58B100200090616831
:101C7000886B694600F080FD9DF8000000B10025EA
:101C800000BF012D06D16068406AC06810B92046C7
:101C900000F070F838BD000001460B78012202FA0E
:101CA00003F0064A1268D2F88420024012B1044AB6
:101CB000506101E0024A5062704700005055000038
:101CC0000000014070B504466068D0F8A00038B349
:101CD000606890F8A80018B3616801F1300002F064
:101CE00069F90546DDB1E86830B9A87C08B1012082
:101CF00000E00020064605E0A87C08B9022000E0CC
:101D00000320064661682A46D1E9283031469847C3
:101D1000616801F12800294601F078FB00BF06E068
:101D2000606890F83400401C616881F8340070BD30
:101D300010B500BF00BF0B48006800F006040A4859
:101D4000006830B12104002208480068064B1B6877
:101D500098470448006820430549C1F8180300BFAC
:101D600000BF10BD18C30440900100209401002062
:101D700000C0044070B504466068007938B9206836
:101D800000884FF2CF3108402168088013E0606876
:101D9000406A807C012807D12068008D4DF6FF51F4
:101DA00008402168088506E02068008D4BF6FF3169
:101DB0000840216808856068406A057D626802F114
:101DC0003000516A01F022FB6068C06A18B92046F1
:101DD00000F092FB0AE06068406A807C6168C96A32
:101DE000897C884202D0204600F086FB0020616892
:101DF00048622DB1204600F004F82046FFF762FF4C
:101E000070BD70B5044601256068406A08B10120C4
:101E100070BD6068C06A50B1616801F12C0002F0C9
:101E2000C9F8616848622046FFF702FE0546284669
:101E3000EEE7000010B500BF00BF0349886901F05C
:101E400027FF00BF00BF10BD8400002010B500BFF9
:101E500000BF0349486B01F01BFF00BF00BF10BD6E
:101E60008400002010B500BF00BF0349086D01F0D9
:101E70000FFF00BF00BF10BD840000204268126A3F
:101E80000A4343681A62426892F83420521C43683D
:101E900083F834207047000010B5024614780123FF
:101EA00003FA04F0084B1860074B0833186001F080
:101EB000010313B1044B1B1F186001F0020313B19F
:101EC000014B1B1D186010BD1408014070B504467D
:101ED0002178012000FA01F50220207501206075AB
:101EE000A075207B00F00700032803D1204621695C
:101EF000FFF7D2FF0148456370BD000000000140BC
:101F000030B587B0044600200090201200F062F83F
:101F1000E0B240F080000F490870084601900E487A
:101F200002900120039004900590069001A90B48AF
:101F3000006800F0A1FF04E069460848006800F06E
:101F4000E7FE9DF800000028F6D0034805782846F3
:101F500007B030BD4A0600205406002004000020CF
:101F600030B587B0044600200090201200F032F80F
:101F7000E0B240F08000144908700020487088707A
:101F8000084601901148029003200390049001201C
:101F90000590069001A90E48006800F06DFF04E06E
:101FA00069460B48006800F0B3FE9DF80000002869
:101FB000F6D0064880780549497800EB012085B2C3
:101FC000284607B030BD00004A0600205406002015
:101FD0000400002070B5044604F5807529460348C6
:101FE000006800F067F8012070BD000004000020C8
:101FF00030B587B004460D46002000902012FFF750
:10200000E9FF10490C700846457001900E48029097
:1020100002200390002004900120059000200690EB
:1020200001A90A48006800F027FF04E06946074854
:10203000006800F06DFE9DF800000028F6D0012039
:1020400007B030BD4A0600205406002004000020DE
:1020500030B587B004460D46002000902012FFF7EF
:10206000B9FF11490C70281248708D700846019014
:102070000E48029003200390002004900120059058
:102080000020069001A90A48006800F0F5FE04E06F
:1020900069460748006800F03BFE9DF800000028F4
:1020A000F6D0012007B030BD4A06002054060020BB
:1020B0000400002030B587B005460C460020009093
:1020C00020120F4908704C700846019000200290C1
:1020D000022003900020049001200590002006902B
:1020E00001A9284600F0C8FE03E06946284600F032
:1020F0000FFE9DF800000028F7D0012007B030BD8A
:102100004A06002002480068401C014908607047E8
:10211000700000202DE9F04F8DB03F48006800F0BE
:10212000030030B1012808D002280AD0032868D162
:1021300062E03A483A49086066E038483849086041
:1021400062E03548006800F4006010B1DFF8CCA010
:1021500001E0DFF8C8A030490C31096801F01F0028
:1021600003F098F90A902F49D1F80C13C1F3C3205A
:1021700003F090F90B9028480C300068C0F3002B56
:102180002849D1F80C13C1F3004003F083F90C90F7
:102190000B9803F053F9CDE90801504603F07AF9A2
:1021A000044603F04BF9CDE904010C9803F046F91D
:1021B000064600221C4B02F02BFDCDE900010A98D7
:1021C00003F03CF90446DDE9002302F04FFFCDE9BE
:1021D0000201DDE9042302F049FFCDE90601DDE952
:1021E000082302F0BDFD804602F012FF20FA0BFA30
:1021F0000B48C0F800A007E00C48006808490860D8
:1022000002E00DB0BDE8F08F00BF05480068084946
:10221000086000BFF5E7000000C3044080BA8C01ED
:102220009C01002000C004400000F03FA0010020FD
:10223000A401002000B544F659002349C8600846AF
:10224000406920F0030048610121022000F056FEA1
:1022500000BF00BFEFF31081084600B972B61B49FA
:10226000096809B91A49086018490968491C174AD8
:10227000116000BF1748184908604FF4E020164964
:102280001C31086000BF00BF00BFBFF36F8F00BFED
:1022900000BF00BF00BF00BF00BFBFF34F8F00BF34
:1022A00000BF00BF00BF10460068401E1146086016
:1022B0000846006828B9002008600548006800B991
:1022C00062B600BF00BD000000C00440A8010020AD
:1022D000AC0100200000000008ED00E02DE9FC5FEB
:1022E00000BF00BF834804696069B0F808A00027F8
:1022F0000AF00E0004280FD004DC00285DD002286C
:102300007DD104E006280BD00C28F9D103E020464B
:1023100002F010FBE9E000BF204602F093FAE4E08F
:102320006069868A06F01000102806D1606900886E
:102330000020616A496C8860102706F008000828B0
:1023400002D10FB947F0080706F00400042801D1B4
:1023500047F0040706F00200022801D147F0020707
:1023600057B3A06A38B100223946D4E90A309847F9
:102370000020E06120E0A06838B100223946D4E9AD
:10238000023098470020E06116E0102F14D0E7617A
:10239000606A006D30B1606A90F88400401C616A28
:1023A00081F88400206A006D30B1206A90F88400C2
:1023B000401C216A81F8840097E06069B0F844000D
:1023C00000F00F066069B0F84090002E7ED009F052
:1023D000010000287ED04FF0000B4FF001080020D4
:1023E000019006F0010000285BD06946002000F053
:1023F00049FB6069B0F848000503606900E073E0DC
:10240000B0F8440005EB1015A06900994843B0FBF3
:10241000F5F02061A069B5EBC00F08D26802A16990
:10242000B0FBF1F0A0F5006B0020019038E0A0694E
:10243000B5EB001F08D22802A169B0FBF1F0A0F5AE
:10244000006B012001902BE0A069B5EB401F08D282
:10245000E801A169B0FBF1F0A0F5006B022001904A
:102460001EE0A1694901B5FBF1F1C8B24FF00008C7
:1024700000BF401000B902E008F10108F9E700BF11
:10248000012101FA08F8202101EB8512A16901FB65
:1024900008F1B2FBF1F1A1F5006B0321019100BF3E
:1024A00000BF01981FFA8BF31FFA88F101220090F8
:1024B000204600F03BFD032061680870A06820B151
:1024C00071020022D4E90230984700E002E060691E
:1024D000008800BF6069B0F840004FF6F87108400E
:1024E0006169A1F8400000E000BF00BF00BF00BF6D
:1024F000BDE8FC9FD800002010B504466068407C11
:1025000048B16068807C30B16168886B00F098F8F1
:1025100000216068817410BD10B500BF00BF114874
:1025200044681148006898B104F0040030B10022FA
:1025300004210E4800680C4B1B68984704F0020009
:1025400030B10022022109480068074B1B689847F8
:102550000448406804F0060108430249486000BF8F
:1025600000BF10BD00C00440900100209401002075
:10257000002817DB00F01F02012191400A4A43099D
:1025800042F8231000BF00BF00BFBFF34F8F00BF52
:1025900000BF00BF00BF00BF00BFBFF36F8F00BF11
:1025A00000BF00BF7047000080E100E0002809DBA9
:1025B00000F01F02012191404209920002F1E02245
:1025C000C2F800117047002809DB00F01F0201214A
:1025D00091404209920002F1E022C2F800117047D6
:1025E000002809DB00F01F020121914042099200FE
:1025F00002F1E022C2F800117047002809DB00F068
:102600001F02012191404209920002F1E022C2F82A
:1026100000117047EFF310807047EFF310807047A0
:10262000EFF310807047EFF310807047EFF31080E6
:10263000704730380A2801D20120704700207047C7
:102640002DE9F0410446254600272978012000FAAB
:1026500001F614480068D0F88C00304018B1002111
:10266000284600F023F80021288882B20D4800682F
:10267000001D40F822100B480068D0F88800B043D5
:1026800008490968C1F8880006480068D0F88C003D
:1026900028B90548406820F00100034948603846E1
:1026A000BDE8F08150550000000001402DE9F047E1
:1026B00006460F4634464FF000082178012000FA04
:1026C00001F527B32A480068D0F88C00284000287C
:1026D0004AD127480068D0F88C002843244909686B
:1026E000C1F88C002348406840F00100214948604F
:1026F0002046FFF7EBFB2168090C48B2FFF770FF9B
:102700002046FFF7FBF92046FFF7C6FA2CE01948F0
:10271000C562056209E004F11C0001F079FC814604
:10272000494604F1180000F0A9FEE0690028F2D142
:1027300009E004F1200001F06BFC8146494604F1F8
:10274000180000F09BFE206A0028F2D1206920F0DA
:102750000F00206106480068D0F88C00A8430449A7
:102760000968C1F88C0000BF4046BDE8F087000052
:10277000505500000000014070B50246134600208D
:102780001E78012505FA06F4084D2D68D5F88C5001
:102790002540A54206D11D6A0DB9DD6915B1012597
:1027A0000D7001E000250D7070BD00005055000057
:1027B0002DE9F04705460E4617469846DDF820906D
:1027C000012000FA05FA34462148406840F0010033
:1027D0001F4948601F4800680078B8B909151E48AD
:1027E000FDF786FF1D480068194988604FF6FF70A5
:1027F0000862C8624863C8638864C86408650120C9
:102800001449096808701320FFF7EAFE6421204686
:10281000FDF76EFF25602046FFF7DEF9C4F804805F
:10282000C4F808900B480068D0F8880040EA0A0015
:1028300008490968C1F88800208881B20548006805
:10284000001D40F821403C600020BDE8F0870000FA
:1028500000000140505500000008002048550000CD
:102860002DE9F04707460D463E464FF00008317807
:10287000012000FA01F906F1180001F0C9FB044635
:10288000002C47D0286860606868A0600020E06085
:10289000E8682061E8686061687C4FF0404101EAC7
:1028A0008070297C4FF0406202EA81610843297AF6
:1028B00040EA0160A0610020E061297C01F0100184
:1028C000E06909B1012100E004210843E061697C6D
:1028D00001F01001E06909B1022100E0082108437C
:1028E000E0613069E16908433061214606F11C006E
:1028F00000F0C4FD0A480068D0F88C0000EA090026
:1029000050B1306A40B93046FFF7F8F83046FFF76B
:10291000C3F901E04FF005084046BDE8F08700002C
:102920005055000010B50346034850F82340208A54
:1029300008401080002010BD800100202DE9F041EA
:1029400006460D461746194850F8264000BFFFF7C7
:102950006AFE8046B8F1000F00D172B614480068D4
:1029600010B91448C0F8008011480068401C104994
:10297000086000BF1FB1A0892843A08102E0A089A0
:10298000A843A08100BF0A480068401E08490860AB
:102990000846006828B9002008600648006800B9A9
:1029A00062B600BF0020BDE8F08100008001002079
:1029B000A8010020AC0100202DE9F04106460D469B
:1029C0001746194850F8264000BFFFF72CFE8046F6
:1029D000B8F1000F00D172B61448006810B914485D
:1029E000C0F8008011480068401C1049086000BF12
:1029F0001FB1A0882843A08002E0A088A843A0803F
:102A000000BF0A480068401E084908600846006880
:102A100028B9002008600648006800B962B600BF07
:102A20000020BDE8F081000080010020A801002006
:102A3000AC0100200246034850F8223019830020E0
:102A400070470000800100200246034850F8223001
:102A50009983002070470000800100204FF4A000FF
:102A6000074908600846006840F0550008604FF4C8
:102A7000AA6008640801024980310860002070479C
:102A8000000002402DE9F04104460D460026FFF704
:102A900041FB0D48076834B1012C09D10B4800688F
:102AA00000F03F0607E009480068C0F3052602E091
:102AB0000320BDE8F08100BF06B90126B7FBF6F0A0
:102AC00028600020F5E700009C01002004C30440BA
:102AD00010B54CF61430234908602348D0F8100193
:102AE00040F00200091D08600020204908604CF6F3
:102AF00014301D49C1F80C010846D0F8100140F00F
:102B00000200C1F8100100BF1648001D006800F463
:102B100000700028F8D01648006820F00300124921
:102B2000C1F80003012000F071F84CF614300E4992
:102B3000C1F80C010846D0F8100120F0080009493E
:102B4000091D08600620FFF758FD0720FFF755FD17
:102B50002920FFF752FD2B20FFF74FFDFFF7DAFA90
:102B6000002010BD0CC1044000C0044090010020B2
:102B700000C304402DE9F04706460C464FF000081C
:102B8000C1462EB1012E08D14FF03F08A14607E003
:102B90004FF47C584FEA042902E00320BDE8F08797
:102BA00000BF00BFFFF742FD074607B972B61348E2
:102BB000006808B91248076010480068401C0F49B7
:102BC000086000BF0F48056825EA080545EA0905C1
:102BD0000D48C0F8045300BF08460068401E086056
:102BE0000846006828B9002008600548006800B958
:102BF00062B600BFFFF78EFA0020CFE7A8010020E1
:102C0000AC01002004C3044000C0044070B5044679
:102C1000062C06D0072C05D0082C04D0092C04D192
:102C200002E000BF00BF00BF01E0032070BD00BF95
:102C300000BFFFF7FBFC064606B972B612480068F3
:102C400008B91248066010480068401C0E49086028
:102C500000BF0F48006820F00305A01F05430D4882
:102C6000C0F8005300BF08460068401E08600846D0
:102C7000006828B9002008600448006800B962B6FE
:102C800000BF0020D2E70000A8010020AC01002016
:102C900000C3044000C0044070B504460D46204601
:102CA000216B884708B1052070BD2573012D0ED119
:102CB0000F48E0620F4921630F4961630F49A16327
:102CC0006068808A4FF6F8710840616888823DB973
:102CD0000B48E0620B4921630B4961630B49A16317
:102CE0002046E16A884708B10520DDE70020DBE7E0
:102CF0004D3E0000A53D0000C13E0000DD3D00004E
:102D00005F420000E7420000654200005B420000B5
:102D100002460020087092F84400012804D192F87D
:102D20004500012800D10870002070477CB504469A
:102D30000D460026A16891F91000FFF719FC6068A4
:102D4000008A4CF6BF71084061680882207B012828
:102D500007D16068808A4DF6FF71084061688882FB
:102D600005E06068808A40F40050616888822868C5
:102D7000206168686061A868E061E8682062287C7A
:102D80002076287D6076606800880190BDF8040098
:102D9000616808806068008A40F00200616808820B
:102DA00001212046FEF7CCF8061E01D030467CBD3E
:102DB0002046616B8847061E05D000212046FEF79D
:102DC000BFF83046F3E7607B01280DD16946204605
:102DD000FFF79EFF03E069462046FFF799FF9DF845
:102DE00000000028F7D000BF3046E0E72DE9F047AB
:102DF00006460D4690461F462C464FF0000900201F
:102E00003860C6EBC6001B4901EB80008561414676
:102E10002846FDF74BFCC6EBC600164901EB8000C7
:102E2000A060C6EBC60001EB8000846131462046FD
:102E3000FEF7DEF88146B9F1000F02D04846BDE842
:102E4000F087002061688884022020702046FEF709
:102E500035F9B0F1000903D0002020704846EEE7B4
:102E60006068008A40F00100616808823C60484662
:102E7000E5E700008400002070B504460D460120FF
:102E8000607329462046FFF751FF06460020607315
:102E9000304670BDF8B506460D4669460020FFF77E
:102EA000F1FD68000099884201D30920F8BD00981F
:102EB000B0FBF5F04008401E84B204F03F00A04291
:102EC00001D00920F2E7706884810020EEE7024615
:102ED0009173002070470246012906D15068008A8C
:102EE00040F400605368188206E05068008A4FF290
:102EF000FF7318405368188200207047024644F65A
:102F00005900094BD860012905D11846406940EAAB
:102F10006200586105E00448406920EA6200024B03
:102F2000586100207047000000C004402DE9F84FB0
:102F300004460F4615469846DDF8289026464FF081
:102F4000000A7069078548F4004A4FF6FF7000EAEE
:102F5000C52040EA0A00716988847069A0F82C9045
:102F600069460020FFF78EFD0098810108EBC5201F
:102F70007843B1FBF0F030610020BDE8F88F00002D
:102F80002DE9F04105460E462C464FF00008606AD8
:102F9000006D40B9012E06D10220616A81F8580007
:102FA0000020BDE8F08100BFFFF73AFB074607B9F4
:102FB00072B64748006808B9464807604448006848
:102FC000401C4349086000BF012E26D1606A90F87A
:102FD0006400012816D1626A02F1700110460123D3
:102FE000176E3D4AB847B0F1000801D04046D8E717
:102FF0001D20FFF7E8FA6069808840F020006169D1
:10300000888005E06069808840F0010061698880FF
:103010000120616A81F8580048E0606A90F8640015
:10302000012823D11D20002817DB00F01F020121F9
:1030300091402A4A430942F8231000BF00BF00BF55
:10304000BFF34F8F00BF00BF00BF00BF00BF00BF76
:10305000BFF36F8F00BF00BF00BF00BF60698088F3
:103060004FF6DF7108406169888006E060698088FA
:103070004FF6FE71084061698880606A90F86500CB
:1030800030B1606A90F88400401C616A81F8840065
:103090000020616A0865616A81F84C000320616A5A
:1030A00001F09CFB0020616A81F8580000BF0848CD
:1030B0000068401E064908600846006828B90020DC
:1030C00008600448006800B962B600BF002068E7E5
:1030D000A8010020AC01002009001D0080E100E0F3
:1030E0002DE9F04105460E462C46206A006D40B998
:1030F000012E06D10220216A81F858000020BDE887
:10310000F08100BFFFF78CFA074607B972B63E4858
:10311000006808B93D4807603B480068401C3A49D0
:10312000086000BF012E23D1206A90F864000128B6
:1031300013D1226A02F1700110460123176E344A3E
:10314000B847B0F1000801D04046D8E760698088F0
:1031500040F010006169888005E06069808840F077
:103160000200616988800120216A81F8580039E0F5
:10317000206A90F86400012814D1226A02F17001DB
:1031800010460023176E224AB847B0F1000801D05C
:103190004046B4E7606980884FF6EF710840616986
:1031A000888006E0606980884FF6FD71084061699B
:1031B0008880206A90F8650030B1206A90F8840019
:1031C000401C216A81F884000020216A0865216A78
:1031D00081F84C000320216A01F000FB0020216AE5
:1031E00081F8580000BF08480068401E0649086082
:1031F0000846006828B9002008600448006800B943
:1032000062B600BF00207AE7A8010020AC010020D0
:1032100008001C002DE9F84F80460F4615469946D8
:10322000DDF828A000200090CAF800004946284692
:10323000FDF73CFA2C4605F1300608EB88003649CC
:1032400001EB8000606008EB880001EB8000C06843
:1032500060612770012F01D0032F13D135462562FD
:103260008836606842682046216A01F097FB00902A
:1032700028B10020616808700098BDE8F88F206AC6
:1032800086666436022F01D0032F11D13546656260
:103290008836606882682046616A01F07FFB009092
:1032A00020B10020616808700098E6E7606A8666D1
:1032B000204601F0A1FBCAF800400E20FFF783F979
:1032C00000BFFFF7ADF98346BBF1000F00D172B626
:1032D0001248006810B91248C0F800B00F480068E2
:1032E000401C0E49086000BF08EB88000A4901EB4A
:1032F0008000046100BF09480068401E074908605B
:103300000846006828B9002008600548006800B930
:1033100062B600BF0020B0E7D8000020A80100205E
:10332000AC0100202DE9F84305460E4690462C4698
:10333000606A90F84C00022807D1606A90F8580043
:10334000022802D01020BDE8F8830120616A81F8CC
:103350004C00606A4667606AC0F87C80616A01F16F
:10336000700308464246D1F85CC03146E047074644
:1033700047B902200090044B32462046616A01F0B2
:10338000BDFBE0E70120DEE7812F00002DE9F843D7
:1033900005460E4690462C46206A90F84C000228BE
:1033A00007D1206A90F85800022802D01020BDE80A
:1033B000F8830120216A81F84C00206A0667206AA0
:1033C000C0F87C80216A01F1700308464246D1F8BA
:1033D0005CC03146E047074647B901200090044BE6
:1033E00032462046216A01F089FBE0E70120DEE752
:1033F000E130000038B504466A4603A12046FDF7D7
:1034000051F8009838BD00002578000070B50446DA
:103410000D4600BFFFF7FEF8064606B972B615481E
:10342000006808B91448066012480068401C114939
:10343000086000BF206808B9256007E0206800E048
:10344000006801680029FBD1056000BF00202860EA
:1034500000BF08480068401E06490860084600682A
:1034600028B9002008600448006800B962B600BFAF
:1034700070BD0000A8010020AC01002070B5064618
:103480000C460EB104B105E040F2AA621C491DA031
:10349000FDF7CCF8206800B905E040F2AB621849AE
:1034A00022A0FDF7C3F800BF00BFEFF3108108466C
:1034B00000B972B62349096809B92349086021494E
:1034C0000968491C1F4A116000BF356835B100E02A
:1034D0002D6828680028FBD12C6000E0346000BF14
:1034E00018480068401E174908600846006828B957
:1034F000002008601448006800B962B600BF70BDC3
:10350000B8550000287070424C69737420213D202A
:103510004E554C4C2920262620287042756666653B
:103520007220213D204E554C4C290000704275669A
:103530006665722D3E704E657874203D3D204E5577
:103540004C4C0000A8010020AC0100202DE9F84FF0
:10355000064689461746CA464FEA262BF0B2009027
:103560001E250AE000F040FEA02000F059FE00F009
:10357000F6FD00B103E0681EC5B2002DF2DC00BF0D
:10358000584600F04DFE00F0EAFD009800F048FEBD
:1035900000F0E5FD1E250AE000F026FEA12000F067
:1035A0003FFE00F0DCFD00B103E0681EC5B2002D57
:1035B000F2DC00BF00240AE000F0FDFD80460AF8BE
:1035C000018B781EA04201D900F0DCFD641CBC42D6
:1035D000F2D300F0E5FD00F015FEBDE8F88F2DE90F
:1035E000F84F04460E461746B1464FEA242BE0B288
:1035F00000904FF01E0A0CE000F0F6FDA02000F055
:103600000FFE00F0ACFD00B106E0AAF1010000F0F1
:10361000FF0ABAF1000FEFDC00BF584600F000FED1
:1036200000F09DFD009800F0FBFD00F098FD0025E6
:1036300007E019F8018B404600F0F2FD00F08FFD25
:103640006D1CBD42F5D300F0DDFDBDE8F88F000034
:103650002DE9F04F87B005468A4600200690049079
:10366000059002900390009001908346002601216E
:1036700063480068FFF72BFC002426E0285D3D2806
:1036800002D0285D2C2805D10BF101001FFA80FB28
:10369000002618E0BBF1010F06D0BBF1020F07D0E6
:1036A000BBF1030F0CD107E0285D06A9885507E0A0
:1036B000285D04A9885503E0285D02A9885500BF4C
:1036C00000BF701C86B2601C84B25445D6DB4DA18D
:1036D00006A8FDF735F8A8B904A8FFF78BFE87B256
:1036E00000208DF80C0002A8FFF784FE1FFA80F876
:1036F00041463846FEF7ACFC032243A1434800682C
:10370000FFF744FE42A106A8FDF71AF848BB04A83B
:10371000FFF770FE87B23846FEF722FC80463A4635
:103720003CA16846FCF7BAFD0422694637480068A8
:10373000FFF72CFE012239A134480068FFF726FE6E
:10374000424634A16846FCF7A9FD042269462F4889
:103750000068FFF71BFE012231A12C480068FFF72B
:1037600015FE30A106A8FCF7EBFFA8B904A8FFF7E7
:1037700041FE87B200208DF80A0002A8FFF73AFE4A
:1037800000F0FF0949463846FEF732FC03221EA12D
:103790001E480068FFF7FAFD23A106A8FCF7D0FF3A
:1037A00048BB04A8FFF726FE87B23846FEF7A8FB01
:1037B00081463A4617A16846FCF770FD0422694627
:1037C00012480068FFF7E2FD012214A10F480068CB
:1037D000FFF7DCFD4A4615A16846FCF75FFD0222B3
:1037E00069460A480068FFF7D1FD01220CA107488D
:1037F0000068FFF7CBFD012007B0BDE8F08F0000A7
:1038000004000020575700004F4B0A000000002022
:103810005257000025303458000000003D000000E1
:103820000A00000057420000524200002530325882
:10383000000000002DE9F04788B0054689460020C9
:1038400007900590069003900490019002908246A4
:10385000002602213E480068FFF739FB002426E0DD
:10386000285D3D2802D0285D2C2805D10AF10100F1
:103870001FFA80FA002618E0BAF1010F06D0BAF15B
:10388000020F07D0BAF1030F0CD107E0285D07A99A
:10389000885507E0285D05A9885503E0285D03A940
:1038A000885500BF00BF701C86B2601C84B24C45B6
:1038B000D6DB28A107A8FCF743FFA8B905A8FFF7A6
:1038C00099FD87B200208DF80E0003A8FFF792FD46
:1038D00000F0FF0841463846FEF78AFB03221EA18E
:1038E0001E480068FFF752FD1DA107A8FCF728FF3E
:1038F00048BB05A8FFF77EFD87B23846FEF700FB00
:1039000080463A4617A101A8FCF7C8FC042201A989
:1039100012480068FFF73AFD012214A10F48006821
:10392000FFF734FD424612A101A8FCF7B7FC0222C2
:1039300001A90A480068FFF729FD01220EA10748E6
:103940000068FFF723FD012008B0BDE8F087000004
:1039500004000020574200004F4B0A0000000020E6
:103960005242000025303458000000003D000000A5
:1039700025303258000000000A0000002DE9F04711
:1039800088B0054689460020079005900690039070
:1039900004900190029082460026002426E0285DD3
:1039A0003D2802D0285D2C2805D10AF101001FFA1C
:1039B00080FA002618E0BAF1010F06D0BAF1020F22
:1039C00007D0BAF1030F0CD107E0285D07A988558D
:1039D00007E0285D05A9885503E0285D03A98855FF
:1039E00000BF00BF701C86B2601C84B24C45D6DBA1
:1039F00034A107A8FCF7A4FE88BB05A8FFF7FAFCD2
:103A000087B200208DF80E0003A8FFF7F3FC00F04A
:103A1000FF0841463846FDF715FA3A462AA101A8A3
:103A2000FCF73CFC042201A929480068FFF7AEFC22
:103A3000012228A126480068FFF7A8FC424626A1DB
:103A400001A8FCF72BFC022201A921480068FFF71E
:103A50009DFC012222A11E480068FFF797FC21A1CE
:103A600007A8FCF76DFE48BB05A8FFF7C3FC87B2AB
:103A70003846FDF7C6F980463A4613A101A8FCF77F
:103A80000DFC042201A912480068FFF77FFC012207
:103A900010A10F480068FFF779FC42460EA101A86B
:103AA000FCF7FCFB022201A909480068FFF76EFC45
:103AB00001220BA106480068FFF768FC012008B04E
:103AC000BDE8F08757420000253034580000000060
:103AD000000000203D0000002530325800000000AA
:103AE0000A0000005242000070B504460D460A224A
:103AF00003A106480068FFF749FC012070BD0000E3
:103B0000504143552056312E370A00000000002056
:103B10002DE9F0478EB00646894600200D900C90A6
:103B20000A900B900990202101A8FCF7E1FD4FF0CD
:103B3000000A0027002429E0305D3D2802D0305DD6
:103B40002C2803D10AF1010A00271EE0BAF1010F67
:103B500009D0BAF1020F0AD0BAF1030F0BD0BAF1B3
:103B6000040F10D10BE0305D0CA9C8550BE0305D9F
:103B70000AA9C85507E0305D09A9C85503E0305DC2
:103B800001A9C85500BF00BF7F1C641C4C45D3DB96
:103B900037A10CA8FCF7D4FD00282FD10AA8FFF705
:103BA00029FC804609A8FFF725FC0546202D00DDED
:103BB0002025002403E000202E490855641CAC4257
:103BC000F9DB1FFA88F02A462A49FFF7BFFC0024D8
:103BD0000CE02848025D28A10DA8FCF75FFB02223B
:103BE0000DA927480068FFF7D1FB641CAC42F0DB4D
:103BF000012224A122480068FFF7C8FB22A10CA8DB
:103C0000FCF79EFD78BB0AA8FFF7F4FB804609A8E5
:103C1000FFF7F0FB0546202D00DD2025002414E0F1
:103C200001A810F814008DF83400012000EB4400C6
:103C300001A9085C8DF8350000208DF836000DA82C
:103C4000FFF7D8FB0B490855641CAC42E8DB1FFAB0
:103C500088F02A460749FFF7C2FC03220BA1084857
:103C60000068FFF793FB01200EB0BDE8F08700006D
:103C70005242000018060020253032580000000093
:103C8000000000200A000000574200004F4B0A00CD
:103C9000F8B504466068008C009060680588BDF83F
:103CA000000000F00F00C0F1080086B2BDF800006F
:103CB00000F4706007120CE02069007861680881E8
:103CC000217E206908442061E069401EE061701E89
:103CD00086B216B1E0690028EED10CE060688088F9
:103CE00061690870617E606908446061206A401EF5
:103CF0002062781E87B217B1206A0028EED1206AB0
:103D000060BBE06950BB2078022813D105F00200A7
:103D100002281CD16068808A00F4005061688882A3
:103D2000012084F8440084F8450000212046FDF776
:103D300007F90CE02078032809D1012084F8280035
:103D40006068008A4CF6FF71084061680882E06B89
:103D500020B100221146D4E90F30984760680580F1
:103D6000F8BD000010B5044606492046FFF792F85A
:103D700000212046FEF790FF01212046FFF7ABF817
:103D8000012010BDA086010070470000044A1168A0
:103D900000E000BF024A1268521A8242F9D370470B
:103DA0007000002070B50446002506220021204640
:103DB000FDF797FC051E01D0284670BDD4F8D4004D
:103DC000FEF73EFC08B10520F7E7D4F83C01FEF70A
:103DD00037FC08B10520F0E72846EEE71A4BCA1A6F
:103DE00099421ED00ADCB1F5A01F10D06FF4A812C2
:103DF0000A44C2B1B2F1031F22D106E0B2F1011FA1
:103E000004D0B2F1021F1BD10CE000BF00BF42681A
:103E1000928B4FF6FD731A4043689A830022C26169
:103E20000FE000BF00BF4268928B4FF6FB731A4051
:103E300043689A8300220262012280F8282000E071
:103E400000BF00BF704700000500190038B50446E8
:103E50000094A168184B04F1D402486804F1700181
:103E6000FEF7A6FC08B1052038BD0094A168134BED
:103E700004F59E72886804F1D801FEF799FC08B138
:103E80000520F1E760680830E06401215820015501
:103E90000321592001550121502001556068001D62
:103EA000E06503216C20015501216D20015564203E
:103EB00001550020D8E70000B14700008947000005
:103EC000F8B504460027266A0025206A30B96068E4
:103ED000008A40F4805061680882E669E06960B950
:103EE0006068008A4FF6BF710840616808826068A8
:103EF000008A40F4005061680882E069B04200D94D
:103F0000E66961680E832069A064E069401C41088D
:103F1000616561692166206A401C4108A166012033
:103F200084F8450084F84400206988B104F1480110
:103F3000D4F8D400FEF794FC08B10D20F8BD01219F
:103F40002046FDF7F6FB45F00205002084F844000A
:103F5000606988B104F15C01D4F83C01FEF780FC93
:103F600008B10D20EAE701212046FDF7CDFB45F021
:103F70000405002084F845002A4601212046FDF76B
:103F8000B0FB071E05D000212046FCF7D9FF3846BC
:103F9000D4E76068008A00F04000402802D06068E2
:103FA00080880090A16891F91000FEF7FFFA38466A
:103FB000C4E7000070B5044600BFFEF72BFB0646C1
:103FC00006B972B61048006808B9104806600E4875
:103FD0000068401C0C49086000BF25682068006824
:103FE00020600020286000BF08460068401E08606E
:103FF0000846006828B9002008600448006800B935
:1040000062B600BF284670BDA8010020AC010020A8
:1040100070B5044604B105E040F29462184919A055
:10402000FCF704FB002500BF00BFEFF3108108463A
:1040300000B972B61749096809B9174908601549E6
:104040000968491C134A116000BF206828B125681F
:104050002068006820600020286000BF0D480068CC
:10406000401E0C4908600846006828B90020086016
:104070000948006800B962B600BF284670BD00005C
:10408000B85500007070424C69737420213D204E79
:10409000554C4C00A8010020AC0100200146002036
:1040A00021B1012904D0022906D103E0002003E058
:1040B000012001E0022000BF00BF7047014601203F
:1040C000102931D2DFE801F0080A0C0E1012141684
:1040D000181B1E2124272A2D012025E0022023E081
:1040E000042021E008201FE010201DE020201BE01C
:1040F000402019E0802017E04FF4807014E04FF466
:10410000007011E04FF480600EE04FF400600BE0AF
:104110004FF4805008E04FF4005005E04FF4804029
:1041200002E04FF4004000BF00BF704708B5002216
:1041300020211046FEF740FCFFF726FE0122202139
:104140000020FEF7FBFB6A4620210020FEF7EAFB79
:10415000BDF8000008B1012008BD0020FCE710B543
:10416000012000F0FAFA012000F0E6FAFFF7DEFF86
:104170000446002000F0E0FA012C01D1002010BD1F
:104180000120FCE710B5002000F0E7FA012000F064
:10419000D3FA002000F0D0FA012000F0DEFA10BDC2
:1041A00010B5012000F0D9FA012000F0C5FA002076
:1041B00000F0C2FA10BD70B50024002510E06006C2
:1041C000040E012000F0B8FAFFF7B0FF10B144F080
:1041D000010400E000BF002000F0AEFA681CC5B288
:1041E000082DECDB204670BD10B5012000F0B5FABB
:1041F000012000F0A1FA002000F0AFFA002000F04A
:104200009BFA10BD10B5002000F096FA002000F0D7
:10421000A4FA012000F090FA012000F09EFA10BDEF
:1042200070B504462546002613E005F0800018B15D
:10423000012000F092FA02E0002000F08EFA6806F9
:10424000050E012000F078FA002000F075FA701CCD
:10425000C6B2082EE9DB70BD704700BFFEE701461D
:104260000020704738B50446002084F8440084F8E4
:104270004500256A206A30B96068008A40F482509F
:1042800061680882E569E06928B96068008A40F4DD
:10429000005061680882E069A84200D9E569616858
:1042A0000D8300250BE02069007861680881217E7C
:1042B000206908442061E069401EE0616D1C082D02
:1042C00002D2E0690028EED1206A10B920780328D4
:1042D00002D1606880880090A16891F91000FEF713
:1042E00065F9002038BD0146002070472DE9F05FD8
:1042F000022282490020FFF729F9804800784F28E0
:104300007AD17E4840784B28FAD14FF0000800253A
:1043100000BF7B4800887B49098805FB01001FFA24
:1043200080FB7848028875495846FFF70FF97348B3
:104330000178407801EB002084B21CB14FF6FF7089
:10434000844200D139E06D488679042E15D18778F2
:10435000012F06D190F8049049462046FDF748FE0B
:1043600024E066480179407901EB00201FFA80FAC9
:1043700051462046FDF76CFE18E0052E16D1B4F527
:10438000204F04D06FF42040204470B90AE05B480D
:104390000179407901EB00201FFA80FA5046FFF7BF
:1043A000F5FC02E04FF0010800BF00BFB8F1000FBC
:1043B00000D002E0681CC5B2ABE700BF4FF00008B8
:1043C000002547E0504800885049098805FB010056
:1043D0001FFA80FB4D48028848495846FFF7B6F857
:1043E00046480178407801EB002084B21CB14FF6BA
:1043F000FF70844201D12FE07CE040488679042E92
:1044000009D18778012F1FD190F8049049462046A2
:10441000FCF718FD18E0052E16D1B4F5204F04D096
:104420006FF42040204470B90AE0344801794079A3
:1044300001EB00201FFA80FA5046FFF7A7FC02E0CC
:104440004FF0010800BF00BFB8F1000F00D003E03B
:10445000681CC5B2022DB5DB00BF4FF00008002577
:1044600000BF2B4800882B49098805FB01001FFA73
:1044700080FB2848028821495846FFF767F81F4803
:104480000178407801EB002084B21CB14FF6FF7038
:10449000844200D12DE019488679042E09D187780D
:1044A000012F1FD190F8049049462046FDF7A0FD4A
:1044B00018E0052E16D1B4F5204F04D06FF420403B
:1044C000204470B90AE00D480179407901EB0020E1
:1044D0001FFA80FA5046FFF759FC02E04FF001083E
:1044E00000BF00BFB8F1000F00D002E0681CC5B2E9
:1044F000B7E700BF0020BDE8F09F000018060020CD
:1045000010000020120000200C0000200E000020EF
:10451000140000201600002008B500240025FEF736
:10452000D7FA01210846FEF725FB01210020FEF7FE
:1045300021FBFEF793FA3E4800684FF47A72B0FB15
:10454000F2F1481EB0F1807F00D31BE0481E4FF00F
:10455000E022506150170722002804DB53071E0E8B
:10456000344B1E5406E053071F0E334B00F00F066A
:10457000361F9F5500BF00204FF0E02290610720BA
:10458000106100BFFFF73EFE2C484FF402732C4A27
:10459000032100900020FEF73DFEFFF733FE0320CD
:1045A0001F2302220721009024480068FEF7BEFC6A
:1045B000FFF728FE234B4FF4A27223490220FEF797
:1045C00015FC20480068FFF7CDFB01211D4800685D
:1045D000FEF77DFCFFF78AFEFFF73EFE26E0012294
:1045E0001A4916480068FEF79DFE3C2C00D90125AB
:1045F000164800780A280BD125B9204600F04CF85F
:10460000002405E0012D03D100F082F800250024EC
:1046100065B90E480078202808DB0C4800787D2812
:1046200004DC0A4800780A490855641CD7E70000F2
:10463000A401002000E400E018ED00E000000020EC
:10464000B001002004000020B80300202E0000204C
:10465000DC05002070B504462068808DC0F301257C
:10466000CDB16068D0F8A00030B161682A46D1E9C8
:104670002830042198470EE00026012D00D10126A4
:10468000022D00D10226032D00D1042631462046FA
:10469000FDF7F4FB00BF70BD30B585B005460020C6
:1046A0001849485500240CE01648005D3D2803D108
:1046B00000200DF8040006E01248005D0DF804002B
:1046C000641CAC42F0DB00BF002413E004EB4400A8
:1046D0000D4A02EB800041686846FCF731F840B9AA
:1046E00004EB4400084901EB800029468268054834
:1046F0009047641C054800688442E7DB002005B051
:1047000030BD0000DC050020300000206C000020DF
:104710001CB506A103C9CDE9000107226946054879
:104720000068FEF733FE00201CBD00004552524FCA
:10473000520A00000000002010B504462CB90122E6
:1047400010210020FEF738F904E000221021104665
:10475000FEF732F9FFF718FB10BD10B504462CB96F
:10476000012220210020FEF727F909E00022202164
:104770001046FEF721F9012220210020FEF7DEF885
:10478000FFF702FB10BD00002DE9F04104460E4684
:104790001746254605492846AA6B90476868808ACF
:1047A00040F4005069688882BDE8F0810500190076
:1047B0002DE9F04105460E4617462C46064920468F
:1047C000A26B9047206A28B96068808A40F4005044
:1047D00061688882BDE8F0810400180030B50346A6
:1047E0000C1D4C644C6C8C644C6C0C644A6C00204A
:1047F0001FE0002400EB800542F8254000EB800517
:1048000002EB85056C6000EB800502EB8505AC6072
:10481000441C04EB840402EB840400EB800502EBEF
:1048200085052C61002400EB800502EB85052C73C7
:10483000401C9842DDD3441E04EB840402EB840444
:10484000226130BD70B50446606A406C006860B398
:10485000606A406C056860690088616A496C8968B3
:104860006854606A406C8068401C616A496C88606A
:10487000606A406C8068616A496C4968884216D3F6
:10488000606A406C036820222046616A00F0D2F81A
:10489000606A90F85800022809D1606980884FF654
:1048A000FE7108406169888001E06069008870BD20
:1048B0002DE9F04704460E4617469946256C2868B0
:1048C00010B10620BDE8F08700BFFDF7A9FE8046C5
:1048D000B8F1000F00D172B61448006810B914483E
:1048E000C0F8008011480068401C1049086000BFF3
:1048F0002E606F600020A86001202873206D401C8E
:104900002065206C0069206400BF08460068401ED6
:1049100008600846006828B900200860044800685C
:1049200000B962B600BF0020CCE70000A80100205B
:10493000AC01002070B50446206A406C006858B392
:10494000206A406C0568206A406C8068285C616958
:104950000880206A406C8068401C216A496C88602D
:10496000206A406C8068216A496C4968884213D388
:10497000206A406C036840222046216A00F05AF801
:10498000206A90F85800022806D1606980884FF6A6
:10499000FD7108406169888070BD000070B50546F2
:1049A0000C461646002004F84C0F207360602076F9
:1049B0000F482061002060614C3C21460320FFF736
:1049C0000DFF04F17000002101720A498E4206D1E8
:1049D00069694160032141740021017405E069693E
:1049E00001600321017400214174002070BD0000AA
:1049F000B148000008001C00032142699181162182
:104A00004269118549F6C661426991840321426970
:104A100091854FF4165101610121816103214269A1
:104A2000918500214269118442699187042142697C
:104A3000918070472DE9F05F05460C461746984671
:104A4000D4F844B0C14600BFFDF7EAFD8246BAF192
:104A5000000F00D172B62748006810B92648C0F888
:104A600000A024480068401C2249086000BF0026BE
:104A700015E0606C0068484510D10020616C087337
:104A8000206D401E2065606C00696064A86820B9D4
:104A900094F88400401C84F8840002E0761C032E05
:104AA000E7D300BF00BF13480068401E11490860EB
:104AB0000846006828B9002008600F48006800B95F
:104AC00062B600BFA86838B14A463946D5E9023017
:104AD00098470020CBF80000206D48B994F84C00AE
:104AE000022802D184F8580002E0002084F84C002B
:104AF000BDE8F09FA8010020AC0100202DE9F84F8F
:104B000005460C4690461E46DDF828B04FF00109D8
:104B10000120009001212846B0478146B9F1000FDD
:104B200002D04846BDE8F88F00BF606C007B0128CA
:104B3000FBD0E86908B10D20F4E7A06C006840459F
:104B40002CD100BFFDF76CFD8246BAF1000F00D1F9
:104B500072B62248006810B92148C0F800A01F486A
:104B60000068401C1D49086000BF0020A16C08605F
:104B7000A06C60642064002084F84C0000BF1748DB
:104B80000068401E154908600846006828B90020E2
:104B900008601348006800B962B600BFBBF1010F9E
:104BA00011D100200090002709E06869808A00F098
:104BB0004000402802D10120009003E07F1C781CB7
:104BC0000028F2D100BF00212846B0478146009856
:104BD000012801D14846A5E70120A3E7A80100204C
:104BE000AC01002010B500290AD00878002807D0B1
:104BF00005487844FBF7A4FD002801D0002010BD33
:104C00000248784410BD0000460A00003E0A000039
:104C100010B591EA030F48BF83F0004300F12C83E5
:104C2000841A71EB030C05D2121943EB0C03001B21
:104C300061EB0C01DFF824E14FEA1154A4EB135CA3
:104C40001EEA430F18BF9EEA445F73D023EA0E03A7
:104C5000DCF1200E21EA045143F4801332D322FA0E
:104C60000CFE10EB0E0023FA0CFE41EB0E01CCF112
:104C7000200E03FA0EFE10EB0E0051F10001B1F50B
:104C8000801FCCF1200E32D201EB045112FA0EF249
:104C9000BDE8104058BF7047401C38BF5FEA420271
:104CA00018BF7047002814BF20F0010041F1000137
:104CB0004FEA410313F5001F38BF7047A1F1C0410F
:104CC00000F0CCBA012A43EB0302ACF1200CDCF17A
:104CD0001F0E32BF4FF0000E23FA0CF310EB03004F
:104CE00041EB0451B4EB115FD0D0A1EB045101F5BD
:104CF000801149085FEA300001EB04510ED350F1F6
:104D0000000038BF12FA0EFE08D1BDE81040C9E716
:104D1000401C38BF5FEA4202CAD1C3E7BDE8104079
:104D20004FEA410313F5001F38BF7047A1F1C0419E
:104D300000F094BA9EEA445F08D011EA5E0FBDE825
:104D4000104004BF01F0004100207047BDE8104052
:104D500070B500F035FA00BF64FBBE3E0000E0FF16
:104D60002DE9C04130B4DFF8A0C23CEA111418BFED
:104D70003CEA131400F0EC8081EA03051CEA1114EC
:104D800044EAD57418BF1CEA131500F0C780A4EBE1
:104D900005044FF0004545EAC12145EAC32341EA35
:104DA000505143EA525304F17F74994204F50034A0
:104DB0004FEAC0204FEAC22208BF904200F09C8018
:104DC0004FEA13650FF24016765D4FEA134506FB76
:104DD00005F7C7F1807706FB07F74FEAD737A7FB40
:104DE00003687642C8F58038A7FB06CE38BFA8F125
:104DF000010807FB08E64FF0000EA6FB028CE6FB5D
:104E000003CEDCF1000CCEF1004E38BFAEF1010E46
:104E1000A6FB0C584FF000074FF00005E6FB0E878D
:104E2000A1FB08C6A0FB07CE16EB0E0645F1000558
:104E3000E1FB076515F1E04E7EBFA4F580345FEA23
:104E400046066D4116F1800745F100054FEA172728
:104E50004FEA066647EA0567A6F1DE46B6F1805FCF
:104E60004FEA15251FD9384624F0010C05EBC47113
:104E7000BCF1FE6F01EB0C1102D8F0BCBDE8008163
:104E800024425CBF01F5801E9EEAC47F02D4F0BCC0
:104E9000BDE80081244238D4F0BCA1F1C041BDE896
:104EA000004100F0DBB94FEAD22242EA43524FEA16
:104EB000D323A7FB02864FEAD02040EA415007FBEC
:104EC00003661EEA0E0F4FEAD12105FB026658BFAA
:104ED000A6EB0056B6EB00564FEA520E4EEAC37EE2
:104EE00018EB0E0E56EB530EBDD518EB02085E41C3
:104EF0007F1C55F10005B6E74FF480154FF0000711
:104F00004FF000064FF00008ADE7F0BC4FF0000096
:104F100001F1C04101F00041BDE8008111EA0C1F20
:104F20000CEA131500D00CE013EA0C1F00F02580EA
:104F30004FF00000F0BC81EA030101F00041BDE840
:104F40000081F0BCBDE8004181EA030100F086B9B0
:104F5000F0BCBDE8004170B500F032F9097EFC3EBE
:104F600000F007B881EA03014FF0000001F00041B2
:104F7000704781EA030100F071B9F0BCBDE800415F
:104F80004FF0000021497047FFFDFBF9F7F5F4F2FF
:104F9000F0EEEDEBE9E8E6E4E3E1E0DEDDDBDAD8D4
:104FA000D7D5D4D3D1D0CFCDCCCBCAC8C7C6C5C432
:104FB000C2C1C0BFBEBDBCBBBAB9B8B7B6B5B4B349
:104FC000B2B1B0AFAEADACABAAA9A8A8A7A6A5A434
:104FD000A3A3A2A1A09F9F9E9D9C9C9B9A999998F8
:104FE0009797969595949393929191908F8F8E8E9B
:104FF0008D8C8C8B8B8A8989888887878685858428
:1050000084838382828181800000FF070000F87F13
:105010004FEA1153A3F58063D3F11E03A8BFD3F168
:10502000200C08DB4FF0004242EAC12252EA505203
:1050300032FA03F0704709420BD4102BC4BF002092
:10504000704703F5787CBCF1FF3F05D04FF0FF308F
:1050500070474FF00000704770B500F0B1F800BF26
:105060004992248000207047F0E70000DFF848C133
:1050700070B51CEA111E1EBF1CEA13159EEA0C0F28
:1050800095EA0C0F00F06F8081EA030423EA4C13C9
:105090004EEAD47E21EA4C1141F4801143F480138E
:1050A000AE44A1FB024CA0FB0365AEF17F7E361936
:1050B00055EB0C05A1FB034C4CF10003A0FB021CBB
:1050C00016EB0C06654153F10003094218BF46F088
:1050D000010613F4007F0BD14FEA03314FEA05308C
:1050E000340341EA155140EA16506FF003020AE01A
:1050F0004FEAC3214FEAC520F40241EA555140EA84
:1051000056506FF0020202EB2E4201EB025585EA87
:10511000CE710AD05FEA440C18BF24F0004450F16D
:10512000000041F1000120EAD47040F2FE7C6245AB
:1051300000D270BDA84214BF4FF080444FF04044ED
:10514000002E08BF0024BEF1806FA8BFA1F1C041AE
:10515000BDE8704080F282804FF0000001F1C04154
:1051600001F0004170479EEA0C0F0CEA131518BFBE
:1051700095EA0C0F06D04FF0000081EA030E0EF006
:10518000004170BD00F01CF88900013E00F007B836
:1051900000F009B84FEA430C5FEA5C5C08D081EA92
:1051A000030100F05BB84FEA410C5FEA5C5CF6D1AA
:1051B0004FF00000014970470000FF070000F87F32
:1051C0000EF1020E2EF0030E5EF8046B364205D48B
:1051D000012A43EB030515F5001F12D8012841EB06
:1051E000010C1CF5001F0CD80ED14FEAD17C15F52F
:1051F000001F0CEB4C0C0CF1020C08BF4CEBD37CE9
:1052000004E04FF0080C01E04FEAD37C0CEB4C05B6
:1052100026FA05F606F00706B6F1040C06D20EEBE8
:10522000860CBDE870404CF0010C6047DFE80CF0E4
:10523000090B02024FF000414FF00000A1F50021E0
:1052400070BD19461046012851EB010418BFD4F572
:10525000001484BF002001F0004170BD0808A0F5D3
:1052600000114FEA3101704710B591EA030F48BFB2
:1052700083F000433FF5D4AC841A71EB030C07D2E2
:1052800012198CF0004C43EB0C03001B61EB0C017A
:10529000DFF8A4E14FEA1154A4EB135C1EEA430FBC
:1052A00018BF9EEA445F00F0B08023EA6E035242CA
:1052B00021EA0451C3EB6E0338BF5B1EDCF1200E04
:1052C00025D322FA0CFE10EB0E0043FA0CFE41EB44
:1052D0000E01CCF1200E03FA0EFE10EB0E0051F180
:1052E0000001CCF1200E29D412FA0EF201EB045188
:1052F000BDE8104058BF7047401C1CBFB2F1004FC2
:10530000704700280CBF491C20F00100704712EBC9
:10531000020E43EB030218BF4FF0010E4EEA4202A9
:10532000ACF1200CDCF11E0E54D943FA0CFE10EB4C
:105330000E0051F1FF31CCF11E0ED5D50EF1010E4C
:1053400012FA0EFE404141EB010101EB445C5FEAC1
:105350005C5C10D910EBDE7001EB045138BFBEF17C
:10536000004FBDE8104018BF704700280CBF491C13
:1053700020F00100704730D24FEAD42C11F5001113
:1053800024F400641BD0B1FA81F20B3AA41AA41ED3
:10539000D2F12003914030FA03F31943904001EB1E
:1053A000CC71002C01EB0451BDE81040A8BF704740
:1053B00001F1C0414FF0000001F000417047B0FA28
:1053C00080F310FA03F100D110BDE41A173C480530
:1053D000C90AE4E701EB045110BD491001EB045187
:1053E000BDE810404FEA300002E04FF00001704786
:1053F0004A0008BF0042F8D0B2F5001F28BF70472E
:1054000001F000414FF0000070479EEA445F07D072
:1054100011EA5E0FBDE8104004BF00210020704774
:10542000BDE8104070B5FFF7CBFE00BF40DFF63E91
:1054300083F00041104670470000E0FF43004FEA50
:10544000D30C4FEA3C0C43401FBF40070CF16051A6
:1054500013F0FE4F70471CF0006F03D100200CF0DA
:10546000004170470CF0004343EA507010B540EA29
:10547000CC0000F022F800BF000000924FEA0001CB
:10548000FFF7ECBE4FF000414FF00000A1F5002106
:1054900070470000B0FA80F310FA03F2C3F19D03E5
:1054A0000AD0D90501EB1220530638BF704700F12E
:1054B000010008BF20F0010070470EF1020E2EF02F
:1054C000030E5EF8044B244204D44FEA4102B2F1C9
:1054D0007F4F11D84FEA4003B3F17F4F0CD80ED164
:1054E0004FEAD07CB2F17F4F0CEB4C0C0CF1020C6C
:1054F00008BF4CEBD17C04E04FF0080C01E04FEA10
:10550000D17C0CEB4C0324FA03F404F00704B4F14F
:10551000040C06D20EEB840CBDE810404CF0010CDC
:105520006047DFE80CF0070802024FF00040A0F5EA
:10553000800010BD0846420018BFD2F1807288BFBB
:1055400000F0004010BD000000080020000A00200C
:10555000EC000020303132333435363738394142AF
:1055600043444546403058003031323334353637C5
:105570003839616263646566403078000400000871
:105580000000000000000002000100001000000008
:1055900041542B4D3234000041542B414400000053
:1055A00041542B414455434D00000000415400003C
:1055B00041542B41444D5600433A5C4B65696C5F46
:1055C00076355C41524D5C5041434B5C416E616CA1
:1055D0006F67446576696365735C414475434D3319
:1055E0003032785F4446505C312E302E325C536F3F
:1055F000757263655C73657276696365735C646D0F
:10560000615C6164695F646D615F706C3233305FEF
:1056100076322E6300000000485700000000002092
:10562000B0010000A0010000EC570000B001002014
:10563000B01A0000FC01000010010000430000004F
:10564000F8FFFFFF004040404040404040404141A3
:105650004141414040404040404040404040404047
:1056600040404040400502020202020202020202E1
:1056700002020202022020202020202020202002DE
:10568000020202020202909090909090101010106E
:10569000101010101010101010101010101010100A
:1056A000020202020202888888888888080808089E
:1056B000080808080808080808080808080808086A
:1056C0000202020240000000000000000000000092
:1056D00000000000000000000000000000000000CA
:1056E00000000000000000000000000000000000BA
:1056F00000000000000000000000000000000000AA
:105700000000000000000000000000000000000099
:105710000000000000000000000000000000000089
:105720000000000000000000000000000000000079
:105730000000000000000000000000000000000069
:105740000000000000000000C1121012081A20041E
:1057500011130308301648656C6C6F2066726F6D0C
:1057600020616475636D333032390A23E80323AC5A
:105770005523E93A1AEA0C1A980C2351361AEB0C05
:105780001A900C23113B1AEF0C1AA00C237D391A26
:10579000F00C1AB00C23353882051230BA400831AB
:1057A00012041A18202219124033400FA3351E127A
:1057B00006121A1207221B124433402A9A4D1C214A
:1057C000121412011A1538340240106A651C1B1C91
:1057D0001DCA121C1209221D8A50680182F2FF1C88
:0C57E000024040041A8004012400000074
:0400000500000145B1
:00000001FF
